:060000000A128A11122809
:10000800FE00030EF1000408F2000A08F300831250
:1000180003137F08F4000A128A11C0290A128A11F0
:100028001528F7010A128A114822F80083010A12DA
:100038008A111E28013083160313860087011F309A
:10004800880001178B100B160B118B168B17831258
:10005800031387010A128A1191210A128A11C630E4
:100068000A128A111E220A128A1154300A128A119F
:1000780033220A128A1149300A128A1133220A12CB
:100088008A114D300A128A1133220A128A11453018
:100098000A128A1133220A128A1152300A128A115C
:1000A80033220A128A119B300A128A111E220A125E
:1000B8008A1131300A128A1133220A128A11343015
:1000C8000A128A1133220A128A110E30831203137C
:1000D800AE002E08F800C4308316031381008A2866
:1000E800780803198A280130F80278080A128A1158
:1000F8004B210A128A114F30F5000030F6000A121F
:100108008A11E6210A128A11831203138312031338
:100118000618742878080E3A031988280E308312B6
:100128000313AE002E08F80078080A128A114B2132
:100138000A128A11882883120313A501A11FAB286C
:10014800A009A109A00A0319A10AA501A50AA31FCC
:10015800B628A209A309A20A0319A30A0130F500C7
:100168007508A506A601A701210820040319ED2892
:10017800A401A40AA11BCC2801300310A00DA10DD5
:10018800FF3E031DC1280130F5007508A407BE28ED
:1001980001300310A60DA70DFF3E031DCD28210831
:1001A8002302031DD92820082202031CE228200864
:1001B800A2022108031CA303A30226140130031082
:1001C800A10CA00CFF3E031DE3280130A402031D6F
:1001D800CC2825080319F528A609A709A60A031992
:1001E800A70A2708A101A1072608A001A00708005F
:1001F80083120313A501A31F0829A209A309A20AB0
:100208000319A30AA501A50AA11F0F29A009A1097D
:10021800A00A0319A10A2108200403193C29A401F2
:10022800A40AA11B232901300310A00DA10DFF3E34
:10023800031D18290130F5007508A40715292108A0
:100248002302031D292920082202031C3129200822
:10025800A2022108031CA303A30201300310A10C6E
:10026800A00CFF3E031D32290130A402031D2329DF
:10027800250803194429A209A309A20A0319A30AF4
:100288002308A101A1072208A001A00708008312E2
:100298000313AD000A30A0000030A1002D08A8000B
:1002A800A9012808A2002908A3000A128A119F2080
:1002B8000A128A11831203132008AA002A08AB0025
:1002C8000A30A0000030A1002D08A800A9012808C4
:1002D800A2002908A3000A128A11FC200A128A1116
:1002E800831203132008AA002A08AC009B300A12C4
:1002F8008A111E220A128A11831203132B08303E18
:100308000A128A1133220A128A11831203132C0843
:10031800303E0A128A11332208001430F5000030EA
:10032800F6000A128A1104220A128A1138300A12B7
:100338008A111E220A128A1108300A128A111E22F4
:100348000A128A1101300A128A111E220A128A110F
:100358000230F5000030F6000A128A1104220A124F
:100368008A1106300A128A111E220A128A110E30C8
:100378000A128A111E2208008B138B1CD6298B1097
:100388000608031DCC2901308700F801F80ADA298C
:1003980008080D3A031DDA2987010E30F0007008AD
:1003A800F800DA290B1DDA290B11F7148B177408DA
:1003B800FF0073088A0072088400710E8300FE0E25
:1003C8007E0E090083120313A101A20183120313F5
:1003D8002208803AA0007608803A2002031DF629F8
:1003E8007508210203180800F71CEA290130831256
:1003F8000313A1070318A20A0030A207F710EA297D
:100408000130F5020030031CF603F602FF307606D1
:10041800031D102AFF307506031908000D308312DA
:100428000313A100FB30A000A00B182AA10B182A67
:100438001D2A042A83120313A000200887008612AD
:10044800061386171A30F600F830F500F50B2A2A3D
:10045800F60B2A2A0000831203138613080083125E
:100468000313A000200887008616061386171A3083
:10047800F600F830F500F50B3F2AF60B3F2A00008E
:0A04880083120313861308000E34DC
:02400E0071FF40
:00000001FF
