:060000000A128A11122809
:10000800FE00030EF1000408F2000A08F300831250
:1000180003137F08F4000A128A118F2A0A128A1120
:100028001528F701F801B101B201B3010A128A11CA
:1000380006230A128A11B4000A128A110723B5008E
:1000480083010A128A1128280130831603138600B7
:1000580087011F30880001178B100B160B118B16A8
:100068008B178312031387010A128A1140220A127E
:100078008A11C6300A128A11DC220A128A115430F7
:100088000A128A11F1220A128A1149300A128A11B7
:10009800F1220A128A114D300A128A11F1220A122B
:1000A8008A1145300A128A11F1220A128A11523035
:1000B8000A128A11F1220A128A119B300A128A1135
:1000C800DC220A128A1131300A128A11F1220A122C
:1000D8008A1134300A128A11F1220A128A110E305A
:1000E80083120313AE002E08B400B1010130AE0034
:1000F8002E08B500B201B301F701F801C430831628
:10010800031381008312031333080319A828B301CA
:10011800B108003003190130AE002E08B1003108D3
:1001280003199928B501B2019D280130AE002E08A7
:10013800B5007830F5000030F6000A128A11C422A2
:100148000A128A1183120313831203133108031945
:10015800CC28B508031DCC284F30F5000030F60038
:100168000A128A116F220A128A11831203133408A1
:100178000319C1280130B402C5280E30AE002E087C
:10018800B40034080A128A11FA210A128A11862840
:10019800831203133508031986280A128A11AC2220
:1001A8000A128A1183120313AE002E08B000300819
:1001B8000D3A031DED280E30AE002E08B4003408A9
:1001C8000A128A11FA210A128A1183120313B20140
:1001D800FB2830080C3A031DF3280130F8283008B2
:1001E8000E3A031DFB280230AE002E08B20032087A
:1001F800013A031D16294F30F5000030F6000A12A7
:100208008A116F220A128A11831203133408031900
:1002180010290130B40245290E30AE002E08B40072
:10022800B2014529831203133208023A031D8628B6
:100238004F30F5000030F6000A128A116F220A12B8
:100248008A110A128A11AC220A128A118312031324
:10025800AE002E08AF002F080D3A031D41290E30BD
:10026800AE002E08B40034080A128A11FA210A12C4
:100278008A1183120313B20186280130AE002E08BA
:10028800B40734080A128A11FA210A128A11831251
:100298000313862883120313A501A11F5A29A00955
:1002A800A109A00A0319A10AA501A50AA31F652986
:1002B800A209A309A20A0319A30A0130F5007508C7
:1002C800A506A601A7012108200403199C29A40159
:1002D800A40AA11B7B2901300310A00DA10DFF3E2C
:1002E800031D70290130F5007508A4076D29013038
:1002F8000310A60DA70DFF3E031D7C29210823022C
:10030800031D882920082202031C91292008A20223
:100318002108031CA303A302261401300310A10C17
:10032800A00CFF3E031D92290130A402031D7B2966
:1003380025080319A429A609A709A60A0319A70AC3
:100348002708A101A1072608A001A0070800831219
:100358000313A501A31FB729A209A309A20A031918
:10036800A30AA501A50AA11FBE29A009A109A00ADF
:100378000319A10A210820040319EB29A401A40ADE
:10038800A11BD22901300310A00DA10DFF3E031DB2
:10039800C7290130F5007508A407C42921082302DC
:1003A800031DD82920082202031CE0292008A202E4
:1003B8002108031CA303A30201300310A10CA00C05
:1003C800FF3E031DE1290130A402031DD22925089F
:1003D8000319F329A209A309A20A0319A30A2308E6
:1003E800A101A1072208A001A00708008312031396
:1003F800AD000A30A0000030A1002D08A800A90116
:100408002808A2002908A3000A128A114E210A12FC
:100418008A11831203132008AA002A08AB000A30A5
:10042800A0000030A1002D08A800A9012808A200FA
:100438002908A3000A128A11AB210A128A11831211
:1004480003132008AA002A08AC009B300A128A115C
:10045800DC220A128A11831203132B08303E0A1277
:100468008A11F1220A128A11831203132C08303ED2
:100478000A128A11F12208001430F5000030F60043
:100488000A128A11C4220A128A1138300A128A11F1
:10049800DC220A128A1108300A128A11DC220A1296
:1004A8008A1101300A128A11DC220A128A110230DA
:1004B800F5000030F6000A128A11C4220A128A11C5
:1004C80006300A128A11DC220A128A110E300A1228
:1004D8008A11DC220800780883120313A501A507F6
:1004E8007708A401A4072409A0002509A100A00AEF
:1004F8000319A10A77082007A20078080318780AC8
:100508002107A30076082302031D8C2A75082202FE
:1005180003180800772A0B1A8B1C972A8B100130B6
:10052800F0007008B3008B1A0B1DA12A0B110130C3
:10053800F7070318F80A0030F8077408FF00730873
:100548008A0072088400710E8300FE0E7E0E090078
:1005580083120313081EC22A08080F39A1002108B4
:10056800A200081AB52A3230F5000030F6000A1247
:100578008A11C4228312031322080800FF300800DE
:100588000130F5020030031CF603F602FF30760650
:10059800031DD02AFF30750603190800F9308312AD
:1005A8000313A0000000A00BD62ADA2A0000C42AF0
:1005B80083120313A00020088700861206138617EB
:1005C8000330F6009730F500F50BE82AF60BE82A19
:1005D800ED2A831203138613080083120313A00065
:1005E800200887008616061386170330F600973012
:1005F800F500F50BFD2AF60BFD2A022B83120313D7
:08060800861308000E340134D2
:02400E0071FF40
:00000001FF
