:060000000A128A11122809
:10000800FE00030EF1000408F2000A08F300831250
:1000180003137F08F4000A128A1119280A128A1198
:10002800152883010A128A1168288B1C5D288B10F9
:1000380008080F39F0007008F500F6013B28F601B2
:10004800F60A5B2802303528033035280430352875
:10005800053035280630352807303528083035284A
:100068000930F0007008F6005B28F6015B28750877
:10007800003A03192328013A03192628033A0319D9
:100088002828063A03192A28013A03192C28033A82
:1000980003192E280E3A03193028013A0319322879
:1000A800033A03193428073A031939285D287608D2
:1000B80087007408FF0073088A0072088400710EB4
:1000C8008300FE0E7E0E09008316031306148701B3
:1000D800FF30880083120313870183160313011767
:0800E8000B168B108B17772813
:02400E0071FF40
:00000001FF
