:060000000A128A11122809
:10000800FE00030EF1000408F2000A08F300831250
:1000180003137F08F4000A128A111C280A128A1195
:100028001528F701F801F90183010A128A118528B8
:100038008B138B1C63288B1008080F39F00070088D
:10004800F500F6014128F601F60A612802303D283C
:1000580003303D2804303D2805303D2806303D2832
:1000680007303D2808303D2809303D28F601612831
:100078000708F0007008F60061287508003A0319AF
:100088002728013A03192A28033A03192C28063A83
:1000980003192E28013A03193028033A0319322884
:1000A8000E3A03193428013A03193628033A03197A
:1000B8003828073A03193A283C28760887000B1D88
:1000C80079280B110130F7070318F80A0030F807F0
:1000D800003078027A3003197702031C792801303E
:1000E800F0007008F900F701F8018B177408FF0099
:1000F80073088A0072088400710E8300FE0E7E0E5B
:1001080009000630831603139F00051006148701A3
:10011800FF30880083120313051087018316031329
:1001280001170B168B108112811101158110011016
:100138008B160B118B178312031305080139A000C6
:100148000130A00605082006FE39200685000A129F
:100158008A11B1200A128A119F28F9017908031D12
:040168000800B228B1
:02400E0071FF40
:00000001FF
