:060000000A128A11122809
:10000800FE00030EF1000408F2000A08F300831250
:1000180003137F08F4000A128A111D280A128A1194
:100028001528F701F801F901FA0183010A128A116A
:100038008D288B138B1C6B288B1008080F39F00048
:100048007008F5007A08F0007008F6004328F601F9
:10005800F60A632802303D2803303D2804303D2845
:1000680005303D2806303D2807303D2808303D281A
:100078000930F0007008F6006328F6016328750857
:10008800003A03192B28013A03192E28033A0319B9
:100098003028063A03193228013A03193428033A5A
:1000A800031936280E3A03193828013A03193A2851
:1000B800033A03193C28073A0319412863287608AC
:1000C800F0007008FA007A088700F701F8010B1DA4
:1000D80081280B110130F7070318F80A0030F807D8
:1000E80000307802183003197702031C8128013088
:1000F800F0007008F900F701F8018B177408FF0089
:1001080073088A0072088400710E8300FE0E7E0E4A
:1001180009008316031306148701FF308800831231
:10012800031387018316031301170B168B10811213
:100138008111011501108B160B118B177A08831288
:1001480087000A128A11B6200A128A110130831216
:100158000313A0002008FA070A307A02031CA22819
:0E016800FA01A228F9017908031D0800B72842
:02400E0071FF40
:00000001FF
