:060000000A128A11122809
:10000800FE00030EF1000408F2000A08F300831250
:1000180003137F08F4000A128A111B280A128A1196
:100028001528F701F80183010A128A1181288B1318
:100038008B1C71288B100808031D272801308700A6
:10004800F801F80A75280808013A031D2F2802301C
:100058008700023066280808023A031D3728033053
:100068008700033066280808043A031D3F28043037
:100078008700043066280808053A031D472805301C
:100088008700053066280808063A031D4F28063001
:100098008700063066280808083A031D57280730E5
:1000A8008700073066280808093A031D5F280830CA
:1000B80087000830662808080A3A031D6A280930AC
:1000C80087000930F0007008F800752808080D3A14
:1000D800031D75288701F80175280B1D75280B115C
:1000E800F7148B177408FF0073088A0072088400DD
:1000F800710E8300FE0E7E0E090083160313850120
:10010800FF3086008701FF308800C4308100011766
:100118008B100B160B118B168B1783120313870189
:100128007808093A031D9A28F8019E280130A3008F
:100138002308F8074F30F5000030F6000A128A113C
:10014800AC200A128A1178088312031387009428B6
:1001580083120313A101A201831203132208803A18
:10016800A0007608803A2002031DBC2875082102E9
:1001780003180800F71CB028013083120313A107E5
:0C0188000318A20A0030A207F710B028EC
:02400E0071FF40
:00000001FF
