:060000000A128A11FC2F18
:100ED0000730831603139F008601FF3085008312BD
:100EE00003138601051C722FF201F3017308803A87
:100EF000FF00A7307F02031D7F2F103072020318FE
:100F0000922F0130F2070318F30A0030F307730839
:100F1000803AFF00A7307F02031D902F103072022D
:100F2000031C812F83120313051C722FF001F101A2
:100F30007108803AFF0080307F02031DA12F03302B
:100F400070020318F72F0130831203138600F20199
:100F5000F3017308803AFF00A7307F02031DB22F10
:100F6000103072020318C52F0130F2070318F30A7C
:100F70000030F3077308803AFF00A7307F02031D9B
:100F8000C32F10307202031CB42F83120313860187
:100F9000F201F3017308803AFF00A7307F02031DBE
:100FA000D32F103072020318E62F0130F207031816
:100FB000F30A0030F3077308803AFF00A7307F027E
:100FC000031DE42F10307202031CD52F0130F007EF
:100FD0000318F10A0030F1077108803AFF008030F1
:100FE0007F02031DF52F03307002031CA32F831211
:100FF0000313051C722FF72F83010A128A11682F21
:02400E0071FF40
:00000001FF
