:100000000A128A11FC2F00308A000408840A820731
:1000100000343134323433342034343435343634EB
:10002000203437343834393420342A3430342334CB
:040030002034003444
:100E5600F600760883120313860007140711871419
:100E66000130F0000030F1000A128A117727831250
:100E7600031387100800F600760883120313860012
:100E86000710071187140130F0000030F1000A1234
:100E96008A11772783120313871008000130F000A8
:100EA6000030F1000A128A1177270A128A113830A7
:100EB6000A128A113E270A128A1108300A128A116A
:100EC6003E270A128A1101300A128A113E270A1297
:100ED6008A1106300A128A113E270A128A110F3029
:100EE6000A128A113E270800F201F3017108730203
:100EF600031D7F2F7008720203180800F401F50124
:100F060003307502E830031974020318972F013075
:100F1600F4070318F50A0030F50703307502E830C8
:100F260003197402031C8A2F0130F2070318F30A0F
:100F36000030F307792F8316031386018701FF30EC
:100F460088000A128A1151270A128A11F90183129E
:100F56000313081EAA2F08080F39F7007708F800B0
:100F6600081EDC2FB32FC0300A128A113E270A1240
:100F76008A11EA2F94300A128A113E270A128A1120
:100F8600EA2FD4300A128A113E270A128A11EA2F52
:100F960001300A128A113E270A128A110230F00025
:100FA6000030F1000A128A1177270A128A11F90114
:100FB600EA2F7908143A0319B62F3C3A0319BD2FC4
:100FC600143A0319C42F6C3A0319CB2FEA2F780869
:100FD600013E84000A128A1103200A128A110A129B
:100FE6008A112B270A128A110130F7007708F907B0
:0A0FF600AA2F83010A128A119E2F10
:02400E0071FF40
:00000001FF
