:060000000A128A11FC2F18
:100EA000F2008312031307147208860087140D30B2
:100EB000F100FB30F000F00B5B2FF10B5B2F602F8C
:100EC0008312031387100800F20083120313071024
:100ED0007208860087140D30F100FB30F000F00B33
:100EE0006F2FF10B6F2F742F8312031387100800DD
:100EF0000130F0020030031CF103F102FF307106F3
:100F0000031D842FFF307006031908000730F3001B
:100F10007D30F200F20B8A2FF30B8A2F782F1430DA
:100F2000F0000030F1000A128A1178270A128A11A3
:100F300038300A128A1164270A128A1108300A12FC
:100F40008A1164270A128A1101300A128A11642751
:100F50000A128A110230F0000030F1000A128A11E0
:100F600078270A128A1106300A128A1164270A1297
:100F70008A110E300A128A1164270800831603139F
:100F80008601870183120313860187010A128A11E1
:100F90008F270A128A11C6300A128A1164270A1290
:100FA0008A1148300A128A1150270A128A114530D4
:100FB0000A128A1150270A128A114C300A128A1119
:100FC00050270A128A114C300A128A1150270A122D
:100FD0008A114F300A128A1150270A128A112130C1
:100FE0000A128A1150270A128A1121300A128A1114
:100FF00050270A128A11FB2F83010A128A11BE2F71
:02400E0071FF40
:00000001FF
