:060000000A128A11122809
:10000800FE00030EF1000408F2000A08F300831250
:1000180003137F08F4000A128A111B280A128A1196
:100028001528F801F90183010A128A1173288B1324
:100038008B1C602808080F39F0007008F500392873
:10004800013035280230352803303528043035286A
:10005800053035280630352807303528083035284A
:10006800093087005F2887015F287508003A03195F
:100078002428013A03192628033A03192828063A9E
:1000880003192A28013A03192C28033A03192E28A0
:100098000E3A03193028013A03193228033A031992
:1000A8003428063A03193728013A03193728033A3E
:1000B800031937285F288B100B1D67280B11013097
:1000C800F8000030F9008B177408FF0073088A00E5
:1000D80072088400710E8300FE0E7E0E0900063041
:1000E800831603139F0085010130860087010F30B6
:1000F80088008312031385018701831603130117F0
:10010800811281110115811001100B168B108B16AD
:100118000B118B17031083120313051C0314031C04
:1001280099288312031305149C28831203130510BE
:100138000A128A11A2200A128A118E28F601F701E2
:100148007708803AFF0080307F02031DAD287A309F
:10015800760203180800013078067904031DA428E4
:10016800F801F9010130F6070318F70A0030F7071C
:02017800A428B9
:02400E0071FF40
:00000001FF
