:060000000A128A11122809
:10000800FE00030EF1000408F2000A08F300831250
:1000180003137F08F4000A128A111B280A128A1196
:100028001528F601F70183010A128A1170288B132B
:100038008B1C602808080F39F0007008F5003C2870
:10004800F701F70A5C2802303628033036280430D6
:100058003628053036280630362807303628083046
:1000680036280930F0007008F7005C28F7015C2892
:100078007508003A03192428013A03192728033A76
:1000880003192928063A03192B28013A03192D28A0
:10009800033A03192F280E3A03193128013A031994
:1000A8003328033A03193528073A03193A285C28F4
:1000B800770887008B1064280B1D64280B117614B1
:1000C8008B177408FF0073088A0072088400710E89
:1000D8008300FE0E7E0E09000630831603139F0070
:1000E8000130860087010F308800770883120313D8
:1000F8008700C4308316031381008B100B160B1175
:100108008B168B178828F70177088312031387004B
:100118006230A0000030A1000A128A11A0200A1241
:100128008A110930770203188728013083120313D4
:10013800A5002508F707882883120313A301A40143
:10014800831203132408803AA2002108803A22026D
:10015800031DB0282008230203180800761CA428D1
:10016800013083120313A3070318A40A0030A4075D
:040178007610A42831
:02400E0071FF40
:00000001FF
