:060000000A128A11122809
:10000800FE00030EF1000408F2000A08F300831250
:1000180003137F08F4000A128A1119280A128A1198
:10002800152883010A128A116A288B138B1C5E28F3
:1000380008080F39F0007008F50037280130332818
:10004800023033280330332804303328053033286E
:100058000630332807303328083033280930870022
:100068005D2887015D287508003A03192228013A9E
:1000780003192428033A03192628063A03192828BD
:10008800013A03192A28033A03192C280E3A0319AE
:100098002E28013A03193028033A03193228063A60
:1000A80003193528013A03193528033A0319352865
:1000B8005D288B108B177408FF0073088A0072087C
:1000C8008400710E8300FE0E7E0E09000130831637
:1000D8000313860087010F30880001170B168B1059
:0A00E8008B17831203138701782899
:02400E0071FF40
:00000001FF
