:100000000A128A11FB2F00308A000408840A820732
:1000100000343134323433344134343435343634CA
:10002000423437343834393443342A343034233486
:02003000443456
:100E8200F0007008013E84000A128A110320080053
:100E9200F2008312031307147208860087140D30C0
:100EA200F100FB30F000F00B542FF10B542F592FAF
:100EB2008312031387100800F20083120313071032
:100EC2007208860087140D30F100FB30F000F00B41
:100ED200682FF10B682F6D2F831203138710080000
:100EE2000130F0020030031CF103F102FF30710601
:100EF200031D7D2FFF307006031908000730F30031
:100F02007D30F200F20B832FF30B832F712F1430FD
:100F1200F0000030F1000A128A1171270A128A11B8
:100F220038300A128A115D270A128A1108300A1211
:100F32008A115D270A128A1101300A128A115D276D
:100F42000A128A110230F0000030F1000A128A11EE
:100F520071270A128A1106300A128A115D270A12B3
:100F62008A110E300A128A115D27080083160313B4
:100F7200860187011F3088008312031386018701CF
:100F82000A128A1188270A128A1183120313081E71
:100F9200C62F08080F39F4007408F50075080A1204
:100FA2008A1141270A128A11F4007408F6007608A1
:100FB2000A128A1149270A128A110130F4007408B0
:100FC200F70720307702031CF62F01300A128A112C
:100FD2005D270A128A110230F0000030F1000A1275
:100FE2008A1171270A128A11F70183120313081E4C
:0E0FF200C62FF62FF70183010A128A11B72FBE
:02400E0071FF40
:00000001FF
