:060000000A128A11FC2F18
:100EAC00F2008312031307147208860087140D30A6
:100EBC00F100FB30F000F00B612FF10B612F662F6E
:100ECC008312031387100800F20083120313071018
:100EDC007208860087140D30F100FB30F000F00B27
:100EEC00752FF10B752F7A2F8312031387100800BF
:100EFC000130F0020030031CF103F102FF307106E7
:100F0C00031D8A2FFF307006031908000730F30009
:100F1C007D30F200F20B902FF30B902F7E2F1430BC
:100F2C00F0000030F1000A128A117E270A128A1191
:100F3C0038300A128A116A270A128A1108300A12EA
:100F4C008A116A270A128A1101300A128A116A2739
:100F5C000A128A110230F0000030F1000A128A11D4
:100F6C007E270A128A1106300A128A116A270A127F
:100F7C008A110E300A128A116A270800831603138D
:100F8C008601870183120313860187010A128A11D5
:100F9C0095270A128A11C6300A128A116A270A1278
:100FAC008A1148300A128A1156270A128A114530C2
:100FBC000A128A1156270A128A114C300A128A1107
:100FCC0056270A128A114C300A128A1156270A1215
:100FDC008A114F300A128A1156270A128A112130AF
:100FEC000A128A1156270A128A11FB2F83010A1240
:040FFC008A11C42F63
:02400E0071FF40
:00000001FF
