:100000000A128A11FC2F00308A000408840A820731
:1000100000343134323433342034343435343634EB
:10002000203437343834393420342A3430342334CB
:1000300020340034313432343334343400344134F5
:100040006334633465347334733420344734723426
:1000500061346E3474346534643400344134633450
:1000600063346534733473342034443465346E340B
:10007000693465346434003445346E347434653422
:0E00800072342034503449344E343A34003453
:100DA60001300A128A11E3260A128A110D30F40064
:100DB600FB30F300F30BDD2EF40BDD2EE22E0800E4
:100DC600F2007208831203138600071007118714B6
:100DD6000730F1007D30F000F00BEF2EF10BEF2E17
:100DE6008312031387100730F1007D30F000F00BFB
:100DF600FA2EF10BFA2E0800F20072088312031382
:100E060086000714071187140730F1007D30F000C3
:100E1600F00B0B2FF10B0B2F8312031387100730E8
:100E2600F1007D30F000F00B162FF10B162F0800A5
:100E3600F400740884000A128A1103200A128A1127
:100E4600003803190800740884000A128A11032066
:100E56000A128A110A128A11FF260A128A11013011
:100E6600F3007308F4071C2F6230F6006530F500B6
:100E7600F50B3B2FF60B3B2F402F38300A128A1109
:100E8600E3260A128A110C300A128A11E3260A1284
:100E96008A110A128A11D3260A128A1106300A12F8
:100EA6008A11E3260800F500602F0130F20072086F
:100EB600F5070130F2007208F00775088400831305
:100EC6000008F200700884000A128A1103200A1230
:100ED6008A11FF3A013E7207F3007308F400F40822
:100EE600031D7A2F750884008008031D582F740887
:100EF600F000F101F01BF1030800831603138601CD
:100F06008701FF3088000A128A1137270A128A11D0
:100F160083120313A7010A128A11D3260A128A1111
:100F260034300A128A111B270A128A11C0300A129B
:100F36008A11E3260A128A1183120313A7010430C9
:100F460027020318D32F081EA22F08080F39F7000F
:100F56007708A500081AAD2F2508013E84000A125D
:100F66008A1103200A128A11F7007708A6002608BC
:100F7600203A0319A22F2608F7002708203E8400EE
:100F86007708831380002A300A128A11FF260A1274
:100F96008A110130F700770883120313A707A22FDF
:100FA600A4010A128A11D3260A128A111230F700F6
:100FB6007708F00020300A128A1156270A128A1181
:100FC60071087004031DE92F1730EA2F26300A1224
:100FD6008A111B270A128A113330F900BC30F80037
:100FE6001030F700F70BF52FF80BF52FF90BF52F4F
:0A0FF6008E2F83010A128A11802F4A
:02400E0071FF40
:00000001FF
