:060000000A128A11122809
:10000800FE00030E83120313A2000408A3000A08CB
:10001800A4007F08A5000A128A1176280A128A11FC
:100028001528F901FA0183010A128A11B828F60184
:10003800F11F2528F009F109F00A0319F10AF60160
:10004800F60AF31F3028F209F309F20A0319F30A32
:100058000130F4007408F606F701F801710870041D
:1000680003196728F501F50AF11B4628013003102A
:10007800F00DF10DFF3E031D3B280130F40074081C
:10008800F507382801300310F70DF80DFF3E031D62
:10009800472871087302031D532870087202031C55
:1000A8005C287008F2027108031CF303F30277144A
:1000B80001300310F10CF00CFF3E031D5D280130E8
:1000C800F502031D4628760803196F28F709F80971
:1000D800F70A0319F80A7808F101F1077708F0011F
:1000E800F00708008B130C1DAC280C111608FA0138
:1000F800FA071508F901F9078E018F01E830F000B9
:100108000330F1007A08F301F3077908F201F207E6
:100118000A128A111B200A128A117108FA01FA07B9
:100128007008F901F9077A0883120313A100790806
:10013800A0000310A00DA10D0310A00DA10D031028
:10014800A00DA10D2008F9002108FA00013085064C
:100158008B172508FF0024088A0023088400220E34
:100168008300FE0E7E0E09000F30831603139F00D6
:1001780085018312031305100430831603138700C7
:100188003030831203139000053097008316031351
:100198000C15831203130C110B178B171014D3288B
:00000001FF
