:060000000A128A11122809
:10000800FE00030EF4000408F5000A08F600831247
:1000180003137F08F7000A128A11CA290A128A11E3
:100028001528C001C101C201C30183010A128A1146
:10003800F02883120313BD010930BE000030BF0051
:10004800310830042F042E04031D7E283030B200FE
:100058003E08333E8400320883138000FF30BE0719
:100068000318BF0AFF30BF0786280030A3000030FE
:10007800A2000030A1000A30A0003108A700300813
:10008800A6002F08A5002E08A4000A128A114F21E5
:100098000A128A11831203132008303EB2003E0868
:1000A800333E8400320883138000FF30BE070318F4
:1000B800BF0AFF30BF070030A3000030A2000030A5
:1000C800A1000A30A0003108A7003008A6002F08B8
:1000D800A5002E08A4000A128A1190200A128A117B
:1000E800831203132308B1002208B0002108AF00CF
:1000F8002008AE00310830042F042E040319862886
:10010800BF1F39283E08013E333EA2000030A3003D
:100118000A128A11F3210800003083120313AC007D
:100128000030AB000030AA000030A90023082204E8
:10013800210420040319E728AD01AD0AA31BB22846
:100148000130A8000310A00DA10DA20DA30DA80B4E
:10015800A6280130A8002808AD07A2280130A80069
:100168000310A90DAA0DAB0DAC0DA80BB4282308DC
:100178002702031DC92822082602031DC9282108B1
:100188002502031DC92820082402031CDA28200898
:10019800A4022108031C210FA5022208031C220F18
:1001A800A6022308031C230FA702291401300310F9
:1001B800A30CA20CA10CA00CFF3E031DDB280130F0
:1001C800AD02031DB2282C08A3002B08A2002A08A0
:1001D800A1002908A00008000730831603139F0018
:1001E800831203138601880183160313860188018D
:1001F800043087000A128A119D210A128A113030B0
:1002080083120313900005309700831603130C150F
:10021800831203130C110B178B171014C6300A1214
:100228008A1164220A128A11013083120313A20070
:100238008030A3000A128A11F3210A128A119A3017
:100248000A128A1164220A128A11831203134308BC
:10025800B1004208B0004108AF004008AE000A12E1
:100268008A111D200A128A110A3083120313A20070
:100278008030A3000A128A11F3210A128A1164300D
:1002880083120313A0000030A1000A128A11392238
:100298000A128A1112298312031323082204210443
:1002A800200403199429A901A90AA31B692901306B
:1002B800A8000310A00DA10DA20DA30DA80B5D2988
:1002C8000130A8002808A907592923082702031D77
:1002D800772922082602031D772921082502031DF4
:1002E800772920082402031C87292008A402210852
:1002F800031C210FA5022208031C220FA6022308B3
:10030800031C230FA70201300310A30CA20CA10C9D
:10031800A00CFF3E031D88290130A902031D69298D
:100328002708A3002608A2002508A1002408A00089
:100338000800143083120313A0000030A1000A1231
:100348008A1139220A128A1138300A128A11642253
:100358000A128A110C300A128A1164220A128A11AE
:1003680001300A128A1164220A128A110230831299
:100378000313A0000030A1000A128A1139220A12C0
:100388008A1106300A128A11642208008B130C1D88
:10039800E7290C118E018F011508F0001608F100ED
:1003A800F201F30103300310F00DF10DF20DF30D1E
:1003B800FF3E031DD7297308C3007208C2007108E5
:1003C800C1007008C0008B177708FF0076088A0004
:1003D80075088400740E8300FE0E7E0E09008312D9
:1003E80003132308FF00220884000A128A11182226
:1003F8000A128A110038031908008312031323080C
:10040800FF00220884000A128A1118220A128A118F
:100418000A128A1153220A128A1101308312031315
:10042800A2070318A30AF329FF1B222A83137F18A4
:1004380083170008840A0319FF0A080002308A009B
:100448000408840A820700345034653472346934ED
:100458006F3464343A3420340034203475347334BF
:100468002034203420342034003401308312031324
:10047800A0020030031CA103A102FF302106031DC6
:10048800472AFF30200603190800F93083120313A6
:10049800A2000000A20B4D2A512A0000392A83121B
:1004A8000313A100210886000814081188141030CD
:1004B800A000A00B5D2A0000831203138810080017
:1004C80083120313A100210886000810081188145C
:1004D8001030A000A00B6E2A0000831203138810AE
:0204E80008000A
:02400E0071FF40
:00000001FF
